{
  "_format": "hh-sol-artifact-1",
  "contractName": "MyEpicNFT",
  "sourceName": "contracts/nft.sol",
  "abi": [
    {
      "inputs": [],
      "stateMutability": "nonpayable",
      "type": "constructor"
    },
    {
      "anonymous": false,
      "inputs": [
        {
          "indexed": true,
          "internalType": "address",
          "name": "owner",
          "type": "address"
        },
        {
          "indexed": true,
          "internalType": "address",
          "name": "approved",
          "type": "address"
        },
        {
          "indexed": true,
          "internalType": "uint256",
          "name": "tokenId",
          "type": "uint256"
        }
      ],
      "name": "Approval",
      "type": "event"
    },
    {
      "anonymous": false,
      "inputs": [
        {
          "indexed": true,
          "internalType": "address",
          "name": "owner",
          "type": "address"
        },
        {
          "indexed": true,
          "internalType": "address",
          "name": "operator",
          "type": "address"
        },
        {
          "indexed": false,
          "internalType": "bool",
          "name": "approved",
          "type": "bool"
        }
      ],
      "name": "ApprovalForAll",
      "type": "event"
    },
    {
      "anonymous": false,
      "inputs": [
        {
          "indexed": false,
          "internalType": "address",
          "name": "sender",
          "type": "address"
        },
        {
          "indexed": false,
          "internalType": "uint256",
          "name": "tokenId",
          "type": "uint256"
        }
      ],
      "name": "NewEpicNFTMinted",
      "type": "event"
    },
    {
      "anonymous": false,
      "inputs": [
        {
          "indexed": true,
          "internalType": "address",
          "name": "from",
          "type": "address"
        },
        {
          "indexed": true,
          "internalType": "address",
          "name": "to",
          "type": "address"
        },
        {
          "indexed": true,
          "internalType": "uint256",
          "name": "tokenId",
          "type": "uint256"
        }
      ],
      "name": "Transfer",
      "type": "event"
    },
    {
      "inputs": [
        {
          "internalType": "address",
          "name": "to",
          "type": "address"
        },
        {
          "internalType": "uint256",
          "name": "tokenId",
          "type": "uint256"
        }
      ],
      "name": "approve",
      "outputs": [],
      "stateMutability": "nonpayable",
      "type": "function"
    },
    {
      "inputs": [
        {
          "internalType": "address",
          "name": "owner",
          "type": "address"
        }
      ],
      "name": "balanceOf",
      "outputs": [
        {
          "internalType": "uint256",
          "name": "",
          "type": "uint256"
        }
      ],
      "stateMutability": "view",
      "type": "function"
    },
    {
      "inputs": [
        {
          "internalType": "uint256",
          "name": "tokenId",
          "type": "uint256"
        }
      ],
      "name": "getApproved",
      "outputs": [
        {
          "internalType": "address",
          "name": "",
          "type": "address"
        }
      ],
      "stateMutability": "view",
      "type": "function"
    },
    {
      "inputs": [
        {
          "internalType": "address",
          "name": "owner",
          "type": "address"
        },
        {
          "internalType": "address",
          "name": "operator",
          "type": "address"
        }
      ],
      "name": "isApprovedForAll",
      "outputs": [
        {
          "internalType": "bool",
          "name": "",
          "type": "bool"
        }
      ],
      "stateMutability": "view",
      "type": "function"
    },
    {
      "inputs": [],
      "name": "makeAnEpicNFT",
      "outputs": [],
      "stateMutability": "nonpayable",
      "type": "function"
    },
    {
      "inputs": [],
      "name": "name",
      "outputs": [
        {
          "internalType": "string",
          "name": "",
          "type": "string"
        }
      ],
      "stateMutability": "view",
      "type": "function"
    },
    {
      "inputs": [],
      "name": "numberOfTokensMinted",
      "outputs": [
        {
          "internalType": "uint256",
          "name": "",
          "type": "uint256"
        }
      ],
      "stateMutability": "view",
      "type": "function"
    },
    {
      "inputs": [
        {
          "internalType": "uint256",
          "name": "tokenId",
          "type": "uint256"
        }
      ],
      "name": "ownerOf",
      "outputs": [
        {
          "internalType": "address",
          "name": "",
          "type": "address"
        }
      ],
      "stateMutability": "view",
      "type": "function"
    },
    {
      "inputs": [
        {
          "internalType": "uint256",
          "name": "tokenId",
          "type": "uint256"
        }
      ],
      "name": "pickRandomFirstWord",
      "outputs": [
        {
          "internalType": "string",
          "name": "",
          "type": "string"
        }
      ],
      "stateMutability": "view",
      "type": "function"
    },
    {
      "inputs": [
        {
          "internalType": "uint256",
          "name": "tokenId",
          "type": "uint256"
        }
      ],
      "name": "pickRandomSecondWord",
      "outputs": [
        {
          "internalType": "string",
          "name": "",
          "type": "string"
        }
      ],
      "stateMutability": "view",
      "type": "function"
    },
    {
      "inputs": [
        {
          "internalType": "uint256",
          "name": "tokenId",
          "type": "uint256"
        }
      ],
      "name": "pickRandomThirdWord",
      "outputs": [
        {
          "internalType": "string",
          "name": "",
          "type": "string"
        }
      ],
      "stateMutability": "view",
      "type": "function"
    },
    {
      "inputs": [
        {
          "internalType": "address",
          "name": "from",
          "type": "address"
        },
        {
          "internalType": "address",
          "name": "to",
          "type": "address"
        },
        {
          "internalType": "uint256",
          "name": "tokenId",
          "type": "uint256"
        }
      ],
      "name": "safeTransferFrom",
      "outputs": [],
      "stateMutability": "nonpayable",
      "type": "function"
    },
    {
      "inputs": [
        {
          "internalType": "address",
          "name": "from",
          "type": "address"
        },
        {
          "internalType": "address",
          "name": "to",
          "type": "address"
        },
        {
          "internalType": "uint256",
          "name": "tokenId",
          "type": "uint256"
        },
        {
          "internalType": "bytes",
          "name": "_data",
          "type": "bytes"
        }
      ],
      "name": "safeTransferFrom",
      "outputs": [],
      "stateMutability": "nonpayable",
      "type": "function"
    },
    {
      "inputs": [
        {
          "internalType": "address",
          "name": "operator",
          "type": "address"
        },
        {
          "internalType": "bool",
          "name": "approved",
          "type": "bool"
        }
      ],
      "name": "setApprovalForAll",
      "outputs": [],
      "stateMutability": "nonpayable",
      "type": "function"
    },
    {
      "inputs": [
        {
          "internalType": "bytes4",
          "name": "interfaceId",
          "type": "bytes4"
        }
      ],
      "name": "supportsInterface",
      "outputs": [
        {
          "internalType": "bool",
          "name": "",
          "type": "bool"
        }
      ],
      "stateMutability": "view",
      "type": "function"
    },
    {
      "inputs": [],
      "name": "symbol",
      "outputs": [
        {
          "internalType": "string",
          "name": "",
          "type": "string"
        }
      ],
      "stateMutability": "view",
      "type": "function"
    },
    {
      "inputs": [
        {
          "internalType": "uint256",
          "name": "index",
          "type": "uint256"
        }
      ],
      "name": "tokenByIndex",
      "outputs": [
        {
          "internalType": "uint256",
          "name": "",
          "type": "uint256"
        }
      ],
      "stateMutability": "view",
      "type": "function"
    },
    {
      "inputs": [
        {
          "internalType": "address",
          "name": "owner",
          "type": "address"
        },
        {
          "internalType": "uint256",
          "name": "index",
          "type": "uint256"
        }
      ],
      "name": "tokenOfOwnerByIndex",
      "outputs": [
        {
          "internalType": "uint256",
          "name": "",
          "type": "uint256"
        }
      ],
      "stateMutability": "view",
      "type": "function"
    },
    {
      "inputs": [
        {
          "internalType": "uint256",
          "name": "tokenId",
          "type": "uint256"
        }
      ],
      "name": "tokenURI",
      "outputs": [
        {
          "internalType": "string",
          "name": "",
          "type": "string"
        }
      ],
      "stateMutability": "view",
      "type": "function"
    },
    {
      "inputs": [
        {
          "internalType": "address",
          "name": "_owner",
          "type": "address"
        }
      ],
      "name": "tokensOfOwner",
      "outputs": [
        {
          "internalType": "uint256[]",
          "name": "",
          "type": "uint256[]"
        }
      ],
      "stateMutability": "view",
      "type": "function"
    },
    {
      "inputs": [],
      "name": "totalSupply",
      "outputs": [
        {
          "internalType": "uint256",
          "name": "",
          "type": "uint256"
        }
      ],
      "stateMutability": "view",
      "type": "function"
    },
    {
      "inputs": [
        {
          "internalType": "address",
          "name": "from",
          "type": "address"
        },
        {
          "internalType": "address",
          "name": "to",
          "type": "address"
        },
        {
          "internalType": "uint256",
          "name": "tokenId",
          "type": "uint256"
        }
      ],
      "name": "transferFrom",
      "outputs": [],
      "stateMutability": "nonpayable",
      "type": "function"
    }
  ],
  "bytecode": "0x60806040526103e8600c5560405180610160016040528061012f815260200162004b7a61012f9139600d90805190602001906200003e9291906200056d565b506040518060c001604052806040518060400160405280600581526020017f4372617a7900000000000000000000000000000000000000000000000000000081525081526020016040518060400160405280600481526020017f57696c640000000000000000000000000000000000000000000000000000000081525081526020016040518060400160405280600581526020017f486170707900000000000000000000000000000000000000000000000000000081525081526020016040518060400160405280600381526020017f536164000000000000000000000000000000000000000000000000000000000081525081526020016040518060400160405280600581526020017f416e67727900000000000000000000000000000000000000000000000000000081525081526020016040518060400160405280600681526020017f5363617265640000000000000000000000000000000000000000000000000000815250815250600e906006620001bc929190620005fe565b506040518060c001604052806040518060400160405280600681526020017f4261746d616e000000000000000000000000000000000000000000000000000081525081526020016040518060400160405280600481526020017f54686f720000000000000000000000000000000000000000000000000000000081525081526020016040518060400160405280600881526020017f53757065726d616e00000000000000000000000000000000000000000000000081525081526020016040518060400160405280600981526020017f5370696465726d616e000000000000000000000000000000000000000000000081525081526020016040518060400160405280600481526020017f48756c6b0000000000000000000000000000000000000000000000000000000081525081526020016040518060400160405280600481526020017f4c6f6b6900000000000000000000000000000000000000000000000000000000815250815250600f9060066200033a929190620005fe565b506040518060c001604052806040518060400160405280600781526020017f476972616666650000000000000000000000000000000000000000000000000081525081526020016040518060400160405280600581526020017f536861726b00000000000000000000000000000000000000000000000000000081525081526020016040518060400160405280600881526020017f4b616e6761726f6f00000000000000000000000000000000000000000000000081525081526020016040518060400160405280600881526020017f456c657068616e7400000000000000000000000000000000000000000000000081525081526020016040518060400160405280600581526020017f536e616b6500000000000000000000000000000000000000000000000000000081525081526020016040518060400160405280600581526020017f4561676c650000000000000000000000000000000000000000000000000000008152508152506010906006620004b8929190620005fe565b50348015620004c657600080fd5b506040518060400160405280600781526020017f457069634e4654000000000000000000000000000000000000000000000000008152506040518060400160405280600481526020017f455049430000000000000000000000000000000000000000000000000000000081525081600090805190602001906200054b9291906200056d565b508060019080519060200190620005649291906200056d565b50505062000757565b8280546200057b90620006f2565b90600052602060002090601f0160209004810192826200059f5760008555620005eb565b82601f10620005ba57805160ff1916838001178555620005eb565b82800160010185558215620005eb579182015b82811115620005ea578251825591602001919060010190620005cd565b5b509050620005fa919062000665565b5090565b82805482825590600052602060002090810192821562000652579160200282015b8281111562000651578251829080519060200190620006409291906200056d565b50916020019190600101906200061f565b5b50905062000661919062000684565b5090565b5b808211156200068057600081600090555060010162000666565b5090565b5b80821115620006a857600081816200069e9190620006ac565b5060010162000685565b5090565b508054620006ba90620006f2565b6000825580601f10620006ce5750620006ef565b601f016020900490600052602060002090810190620006ee919062000665565b5b50565b600060028204905060018216806200070b57607f821691505b6020821081141562000722576200072162000728565b5b50919050565b7f4e487b7100000000000000000000000000000000000000000000000000000000600052602260045260246000fd5b61441380620007676000396000f3fe608060405234801561001057600080fd5b50600436106101425760003560e01c80636a23f584116100b8578063b187301f1161007c578063b187301f146103af578063b88d4fde146103df578063c575757a146103fb578063c87b56dd1461042b578063de9d132f1461045b578063e985e9c51461046557610142565b80636a23f584146102f757806370a08231146103155780638462151c1461034557806395d89b4114610375578063a22cb4651461039357610142565b806323b872dd1161010a57806323b872dd146101ff5780632de38d681461021b5780632f745c591461024b57806342842e0e1461027b5780634f6ccce7146102975780636352211e146102c757610142565b806301ffc9a71461014757806306fdde0314610177578063081812fc14610195578063095ea7b3146101c557806318160ddd146101e1575b600080fd5b610161600480360381019061015c9190612c71565b610495565b60405161016e91906134a5565b60405180910390f35b61017f6104a7565b60405161018c91906134c0565b60405180910390f35b6101af60048036038101906101aa9190612cc3565b610539565b6040516101bc91906133f3565b60405180910390f35b6101df60048036038101906101da9190612c35565b6105be565b005b6101e96106d6565b6040516101f69190613780565b60405180910390f35b61021960048036038101906102149190612b2f565b6106e3565b005b61023560048036038101906102309190612cc3565b610743565b60405161024291906134c0565b60405180910390f35b61026560048036038101906102609190612c35565b610861565b6040516102729190613780565b60405180910390f35b61029560048036038101906102909190612b2f565b610906565b005b6102b160048036038101906102ac9190612cc3565b610926565b6040516102be9190613780565b60405180910390f35b6102e160048036038101906102dc9190612cc3565b6109bd565b6040516102ee91906133f3565b60405180910390f35b6102ff610a6f565b60405161030c9190613780565b60405180910390f35b61032f600480360381019061032a9190612aca565b610a80565b60405161033c9190613780565b60405180910390f35b61035f600480360381019061035a9190612aca565b610b38565b60405161036c9190613483565b60405180910390f35b61037d610c32565b60405161038a91906134c0565b60405180910390f35b6103ad60048036038101906103a89190612bf9565b610cc4565b005b6103c960048036038101906103c49190612cc3565b610cda565b6040516103d691906134c0565b60405180910390f35b6103f960048036038101906103f49190612b7e565b610df8565b005b61041560048036038101906104109190612cc3565b610e5a565b60405161042291906134c0565b60405180910390f35b61044560048036038101906104409190612cc3565b610f78565b60405161045291906134c0565b60405180910390f35b610463610f8a565b005b61047f600480360381019061047a9190612af3565b611134565b60405161048c91906134a5565b60405180910390f35b60006104a0826111c8565b9050919050565b6060600080546104b690613a4d565b80601f01602080910402602001604051908101604052809291908181526020018280546104e290613a4d565b801561052f5780601f106105045761010080835404028352916020019161052f565b820191906000526020600020905b81548152906001019060200180831161051257829003601f168201915b5050505050905090565b600061054482611242565b610583576040517f08c379a000000000000000000000000000000000000000000000000000000000815260040161057a906136e0565b60405180910390fd5b6004600083815260200190815260200160002060009054906101000a900473ffffffffffffffffffffffffffffffffffffffff169050919050565b60006105c9826109bd565b90508073ffffffffffffffffffffffffffffffffffffffff168373ffffffffffffffffffffffffffffffffffffffff16141561063a576040517f08c379a000000000000000000000000000000000000000000000000000000000815260040161063190613720565b60405180910390fd5b8073ffffffffffffffffffffffffffffffffffffffff166106596112ae565b73ffffffffffffffffffffffffffffffffffffffff1614806106885750610687816106826112ae565b611134565b5b6106c7576040517f08c379a00000000000000000000000000000000000000000000000000000000081526004016106be90613620565b60405180910390fd5b6106d183836112b6565b505050565b6000600880549050905090565b6106f46106ee6112ae565b8261136f565b610733576040517f08c379a000000000000000000000000000000000000000000000000000000000815260040161072a90613740565b60405180910390fd5b61073e83838361144d565b505050565b60606000610777610753846116b4565b60405160200161076391906133af565b604051602081830303815290604052611861565b9050600e805490508161078a9190613af9565b9050600e81815481106107c6577f4e487b7100000000000000000000000000000000000000000000000000000000600052603260045260246000fd5b9060005260206000200180546107db90613a4d565b80601f016020809104026020016040519081016040528092919081815260200182805461080790613a4d565b80156108545780601f1061082957610100808354040283529160200191610854565b820191906000526020600020905b81548152906001019060200180831161083757829003601f168201915b5050505050915050919050565b600061086c83610a80565b82106108ad576040517f08c379a00000000000000000000000000000000000000000000000000000000081526004016108a490613540565b60405180910390fd5b600660008473ffffffffffffffffffffffffffffffffffffffff1673ffffffffffffffffffffffffffffffffffffffff168152602001908152602001600020600083815260200190815260200160002054905092915050565b61092183838360405180602001604052806000815250610df8565b505050565b60006109306106d6565b8210610971576040517f08c379a000000000000000000000000000000000000000000000000000000000815260040161096890613760565b60405180910390fd5b600882815481106109ab577f4e487b7100000000000000000000000000000000000000000000000000000000600052603260045260246000fd5b90600052602060002001549050919050565b6000806002600084815260200190815260200160002060009054906101000a900473ffffffffffffffffffffffffffffffffffffffff169050600073ffffffffffffffffffffffffffffffffffffffff168173ffffffffffffffffffffffffffffffffffffffff161415610a66576040517f08c379a0000000000000000000000000000000000000000000000000000000008152600401610a5d90613660565b60405180910390fd5b80915050919050565b6000610a7b600b611894565b905090565b60008073ffffffffffffffffffffffffffffffffffffffff168273ffffffffffffffffffffffffffffffffffffffff161415610af1576040517f08c379a0000000000000000000000000000000000000000000000000000000008152600401610ae890613640565b60405180910390fd5b600360008373ffffffffffffffffffffffffffffffffffffffff1673ffffffffffffffffffffffffffffffffffffffff168152602001908152602001600020549050919050565b60606000610b4583610a80565b905060008167ffffffffffffffff811115610b89577f4e487b7100000000000000000000000000000000000000000000000000000000600052604160045260246000fd5b604051908082528060200260200182016040528015610bb75781602001602082028036833780820191505090505b50905060005b82811015610c2757610bcf8582610861565b828281518110610c08577f4e487b7100000000000000000000000000000000000000000000000000000000600052603260045260246000fd5b6020026020010181815250508080610c1f90613ab0565b915050610bbd565b508092505050919050565b606060018054610c4190613a4d565b80601f0160208091040260200160405190810160405280929190818152602001828054610c6d90613a4d565b8015610cba5780601f10610c8f57610100808354040283529160200191610cba565b820191906000526020600020905b815481529060010190602001808311610c9d57829003601f168201915b5050505050905090565b610cd6610ccf6112ae565b83836118a2565b5050565b60606000610d0e610cea846116b4565b604051602001610cfa9190613348565b604051602081830303815290604052611861565b9050600f8054905081610d219190613af9565b9050600f8181548110610d5d577f4e487b7100000000000000000000000000000000000000000000000000000000600052603260045260246000fd5b906000526020600020018054610d7290613a4d565b80601f0160208091040260200160405190810160405280929190818152602001828054610d9e90613a4d565b8015610deb5780601f10610dc057610100808354040283529160200191610deb565b820191906000526020600020905b815481529060010190602001808311610dce57829003601f168201915b5050505050915050919050565b610e09610e036112ae565b8361136f565b610e48576040517f08c379a0000000000000000000000000000000000000000000000000000000008152600401610e3f90613740565b60405180910390fd5b610e5484848484611a0f565b50505050565b60606000610e8e610e6a846116b4565b604051602001610e7a9190613326565b604051602081830303815290604052611861565b905060108054905081610ea19190613af9565b905060108181548110610edd577f4e487b7100000000000000000000000000000000000000000000000000000000600052603260045260246000fd5b906000526020600020018054610ef290613a4d565b80601f0160208091040260200160405190810160405280929190818152602001828054610f1e90613a4d565b8015610f6b5780601f10610f4057610100808354040283529160200191610f6b565b820191906000526020600020905b815481529060010190602001808311610f4e57829003601f168201915b5050505050915050919050565b6060610f8382611a6b565b9050919050565b6000610f96600b611894565b9050600c548110610fdc576040517f08c379a0000000000000000000000000000000000000000000000000000000008152600401610fd390613520565b60405180910390fd5b6000610fe782610743565b90506000610ff483610cda565b9050600061100184610e5a565b9050600083838360405160200161101a939291906132ac565b60405160208183030381529060405290506000600d85858560405160200161104594939291906132dd565b6040516020818303038152906040529050600061108a8361106584611bbd565b60405160200161107692919061336a565b604051602081830303815290604052611bbd565b905060008160405160200161109f91906133d1565b60405160208183030381529060405290506110ba3389611d47565b6110c48882611d65565b6110e7604051806060016040528060258152602001614379602591398933611dd9565b6110f1600b611e78565b7febb98688741ffa4c7589bf325de30cf7becb63de567842e1ccdb6cb949fdc82c338960405161112292919061345a565b60405180910390a15050505050505050565b6000600560008473ffffffffffffffffffffffffffffffffffffffff1673ffffffffffffffffffffffffffffffffffffffff16815260200190815260200160002060008373ffffffffffffffffffffffffffffffffffffffff1673ffffffffffffffffffffffffffffffffffffffff16815260200190815260200160002060009054906101000a900460ff16905092915050565b60007f780e9d63000000000000000000000000000000000000000000000000000000007bffffffffffffffffffffffffffffffffffffffffffffffffffffffff1916827bffffffffffffffffffffffffffffffffffffffffffffffffffffffff1916148061123b575061123a82611e8e565b5b9050919050565b60008073ffffffffffffffffffffffffffffffffffffffff166002600084815260200190815260200160002060009054906101000a900473ffffffffffffffffffffffffffffffffffffffff1673ffffffffffffffffffffffffffffffffffffffff1614159050919050565b600033905090565b816004600083815260200190815260200160002060006101000a81548173ffffffffffffffffffffffffffffffffffffffff021916908373ffffffffffffffffffffffffffffffffffffffff160217905550808273ffffffffffffffffffffffffffffffffffffffff16611329836109bd565b73ffffffffffffffffffffffffffffffffffffffff167f8c5be1e5ebec7d5bd14f71427d1e84f3dd0314c0f7b2291e5b200ac8c7c3b92560405160405180910390a45050565b600061137a82611242565b6113b9576040517f08c379a00000000000000000000000000000000000000000000000000000000081526004016113b090613600565b60405180910390fd5b60006113c4836109bd565b90508073ffffffffffffffffffffffffffffffffffffffff168473ffffffffffffffffffffffffffffffffffffffff16148061143357508373ffffffffffffffffffffffffffffffffffffffff1661141b84610539565b73ffffffffffffffffffffffffffffffffffffffff16145b8061144457506114438185611134565b5b91505092915050565b8273ffffffffffffffffffffffffffffffffffffffff1661146d826109bd565b73ffffffffffffffffffffffffffffffffffffffff16146114c3576040517f08c379a00000000000000000000000000000000000000000000000000000000081526004016114ba90613580565b60405180910390fd5b600073ffffffffffffffffffffffffffffffffffffffff168273ffffffffffffffffffffffffffffffffffffffff161415611533576040517f08c379a000000000000000000000000000000000000000000000000000000000815260040161152a906135c0565b60405180910390fd5b61153e838383611f70565b6115496000826112b6565b6001600360008573ffffffffffffffffffffffffffffffffffffffff1673ffffffffffffffffffffffffffffffffffffffff16815260200190815260200160002060008282546115999190613963565b925050819055506001600360008473ffffffffffffffffffffffffffffffffffffffff1673ffffffffffffffffffffffffffffffffffffffff16815260200190815260200160002060008282546115f09190613882565b92505081905550816002600083815260200190815260200160002060006101000a81548173ffffffffffffffffffffffffffffffffffffffff021916908373ffffffffffffffffffffffffffffffffffffffff160217905550808273ffffffffffffffffffffffffffffffffffffffff168473ffffffffffffffffffffffffffffffffffffffff167fddf252ad1be2c89b69c2b068fc378daa952ba7f163c4a11628f55a4df523b3ef60405160405180910390a46116af838383611f80565b505050565b606060008214156116fc576040518060400160405280600181526020017f3000000000000000000000000000000000000000000000000000000000000000815250905061185c565b600082905060005b6000821461172e57808061171790613ab0565b915050600a8261172791906138d8565b9150611704565b60008167ffffffffffffffff811115611770577f4e487b7100000000000000000000000000000000000000000000000000000000600052604160045260246000fd5b6040519080825280601f01601f1916602001820160405280156117a25781602001600182028036833780820191505090505b5090505b60008514611855576001826117bb9190613963565b9150600a856117ca9190613af9565b60306117d69190613882565b60f81b818381518110611812577f4e487b7100000000000000000000000000000000000000000000000000000000600052603260045260246000fd5b60200101907effffffffffffffffffffffffffffffffffffffffffffffffffffffffffffff1916908160001a905350600a8561184e91906138d8565b94506117a6565b8093505050505b919050565b6000816040516020016118749190613271565b6040516020818303038152906040528051906020012060001c9050919050565b600081600001549050919050565b8173ffffffffffffffffffffffffffffffffffffffff168373ffffffffffffffffffffffffffffffffffffffff161415611911576040517f08c379a0000000000000000000000000000000000000000000000000000000008152600401611908906135e0565b60405180910390fd5b80600560008573ffffffffffffffffffffffffffffffffffffffff1673ffffffffffffffffffffffffffffffffffffffff16815260200190815260200160002060008473ffffffffffffffffffffffffffffffffffffffff1673ffffffffffffffffffffffffffffffffffffffff16815260200190815260200160002060006101000a81548160ff0219169083151502179055508173ffffffffffffffffffffffffffffffffffffffff168373ffffffffffffffffffffffffffffffffffffffff167f17307eab39ab6107e8899845ad3d59bd9653f200f220920489ca2b5937696c3183604051611a0291906134a5565b60405180910390a3505050565b611a1a84848461144d565b611a2684848484611f85565b611a65576040517f08c379a0000000000000000000000000000000000000000000000000000000008152600401611a5c90613560565b60405180910390fd5b50505050565b6060611a7682611242565b611ab5576040517f08c379a0000000000000000000000000000000000000000000000000000000008152600401611aac906136c0565b60405180910390fd5b6000600a60008481526020019081526020016000208054611ad590613a4d565b80601f0160208091040260200160405190810160405280929190818152602001828054611b0190613a4d565b8015611b4e5780601f10611b2357610100808354040283529160200191611b4e565b820191906000526020600020905b815481529060010190602001808311611b3157829003601f168201915b505050505090506000611b5f61211c565b9050600081511415611b75578192505050611bb8565b600082511115611baa578082604051602001611b92929190613288565b60405160208183030381529060405292505050611bb8565b611bb384612133565b925050505b919050565b6060600082511415611be057604051806020016040528060008152509050611d42565b600060405180606001604052806040815260200161439e6040913990506000600360028551611c0f9190613882565b611c1991906138d8565b6004611c259190613909565b67ffffffffffffffff811115611c64577f4e487b7100000000000000000000000000000000000000000000000000000000600052604160045260246000fd5b6040519080825280601f01601f191660200182016040528015611c965781602001600182028036833780820191505090505b509050600182016020820185865187015b80821015611d02576003820191508151603f8160121c168501518453600184019350603f81600c1c168501518453600184019350603f8160061c168501518453600184019350603f8116850151845360018401935050611ca7565b5050600386510660018114611d1e5760028114611d3157611d39565b603d6001830353603d6002830353611d39565b603d60018303535b50505080925050505b919050565b611d618282604051806020016040528060008152506121da565b5050565b611d6e82611242565b611dad576040517f08c379a0000000000000000000000000000000000000000000000000000000008152600401611da490613680565b60405180910390fd5b80600a60008481526020019081526020016000209080519060200190611dd4929190612956565b505050565b611e73838383604051602401611df1939291906134e2565b6040516020818303038152906040527fe3849f79000000000000000000000000000000000000000000000000000000007bffffffffffffffffffffffffffffffffffffffffffffffffffffffff19166020820180517bffffffffffffffffffffffffffffffffffffffffffffffffffffffff8381831617835250505050612235565b505050565b6001816000016000828254019250508190555050565b60007f80ac58cd000000000000000000000000000000000000000000000000000000007bffffffffffffffffffffffffffffffffffffffffffffffffffffffff1916827bffffffffffffffffffffffffffffffffffffffffffffffffffffffff19161480611f5957507f5b5e139f000000000000000000000000000000000000000000000000000000007bffffffffffffffffffffffffffffffffffffffffffffffffffffffff1916827bffffffffffffffffffffffffffffffffffffffffffffffffffffffff1916145b80611f695750611f688261225e565b5b9050919050565b611f7b8383836122c8565b505050565b505050565b6000611fa68473ffffffffffffffffffffffffffffffffffffffff166123dc565b1561210f578373ffffffffffffffffffffffffffffffffffffffff1663150b7a02611fcf6112ae565b8786866040518563ffffffff1660e01b8152600401611ff1949392919061340e565b602060405180830381600087803b15801561200b57600080fd5b505af192505050801561203c57506040513d601f19601f820116820180604052508101906120399190612c9a565b60015b6120bf573d806000811461206c576040519150601f19603f3d011682016040523d82523d6000602084013e612071565b606091505b506000815114156120b7576040517f08c379a00000000000000000000000000000000000000000000000000000000081526004016120ae90613560565b60405180910390fd5b805181602001fd5b63150b7a0260e01b7bffffffffffffffffffffffffffffffffffffffffffffffffffffffff1916817bffffffffffffffffffffffffffffffffffffffffffffffffffffffff191614915050612114565b600190505b949350505050565b606060405180602001604052806000815250905090565b606061213e82611242565b61217d576040517f08c379a000000000000000000000000000000000000000000000000000000000815260040161217490613700565b60405180910390fd5b600061218761211c565b905060008151116121a757604051806020016040528060008152506121d2565b806121b1846116b4565b6040516020016121c2929190613288565b6040516020818303038152906040525b915050919050565b6121e483836123ff565b6121f16000848484611f85565b612230576040517f08c379a000000000000000000000000000000000000000000000000000000000815260040161222790613560565b60405180910390fd5b505050565b60008151905060006a636f6e736f6c652e6c6f679050602083016000808483855afa5050505050565b60007f01ffc9a7000000000000000000000000000000000000000000000000000000007bffffffffffffffffffffffffffffffffffffffffffffffffffffffff1916827bffffffffffffffffffffffffffffffffffffffffffffffffffffffff1916149050919050565b6122d38383836125d9565b600073ffffffffffffffffffffffffffffffffffffffff168373ffffffffffffffffffffffffffffffffffffffff16141561231657612311816125de565b612355565b8173ffffffffffffffffffffffffffffffffffffffff168373ffffffffffffffffffffffffffffffffffffffff1614612354576123538382612627565b5b5b600073ffffffffffffffffffffffffffffffffffffffff168273ffffffffffffffffffffffffffffffffffffffff1614156123985761239381612794565b6123d7565b8273ffffffffffffffffffffffffffffffffffffffff168273ffffffffffffffffffffffffffffffffffffffff16146123d6576123d582826128d7565b5b5b505050565b6000808273ffffffffffffffffffffffffffffffffffffffff163b119050919050565b600073ffffffffffffffffffffffffffffffffffffffff168273ffffffffffffffffffffffffffffffffffffffff16141561246f576040517f08c379a0000000000000000000000000000000000000000000000000000000008152600401612466906136a0565b60405180910390fd5b61247881611242565b156124b8576040517f08c379a00000000000000000000000000000000000000000000000000000000081526004016124af906135a0565b60405180910390fd5b6124c460008383611f70565b6001600360008473ffffffffffffffffffffffffffffffffffffffff1673ffffffffffffffffffffffffffffffffffffffff16815260200190815260200160002060008282546125149190613882565b92505081905550816002600083815260200190815260200160002060006101000a81548173ffffffffffffffffffffffffffffffffffffffff021916908373ffffffffffffffffffffffffffffffffffffffff160217905550808273ffffffffffffffffffffffffffffffffffffffff16600073ffffffffffffffffffffffffffffffffffffffff167fddf252ad1be2c89b69c2b068fc378daa952ba7f163c4a11628f55a4df523b3ef60405160405180910390a46125d560008383611f80565b5050565b505050565b6008805490506009600083815260200190815260200160002081905550600881908060018154018082558091505060019003906000526020600020016000909190919091505550565b6000600161263484610a80565b61263e9190613963565b9050600060076000848152602001908152602001600020549050818114612723576000600660008673ffffffffffffffffffffffffffffffffffffffff1673ffffffffffffffffffffffffffffffffffffffff168152602001908152602001600020600084815260200190815260200160002054905080600660008773ffffffffffffffffffffffffffffffffffffffff1673ffffffffffffffffffffffffffffffffffffffff168152602001908152602001600020600084815260200190815260200160002081905550816007600083815260200190815260200160002081905550505b6007600084815260200190815260200160002060009055600660008573ffffffffffffffffffffffffffffffffffffffff1673ffffffffffffffffffffffffffffffffffffffff16815260200190815260200160002060008381526020019081526020016000206000905550505050565b600060016008805490506127a89190613963565b90506000600960008481526020019081526020016000205490506000600883815481106127fe577f4e487b7100000000000000000000000000000000000000000000000000000000600052603260045260246000fd5b906000526020600020015490508060088381548110612846577f4e487b7100000000000000000000000000000000000000000000000000000000600052603260045260246000fd5b9060005260206000200181905550816009600083815260200190815260200160002081905550600960008581526020019081526020016000206000905560088054806128bb577f4e487b7100000000000000000000000000000000000000000000000000000000600052603160045260246000fd5b6001900381819060005260206000200160009055905550505050565b60006128e283610a80565b905081600660008573ffffffffffffffffffffffffffffffffffffffff1673ffffffffffffffffffffffffffffffffffffffff168152602001908152602001600020600083815260200190815260200160002081905550806007600084815260200190815260200160002081905550505050565b82805461296290613a4d565b90600052602060002090601f01602090048101928261298457600085556129cb565b82601f1061299d57805160ff19168380011785556129cb565b828001600101855582156129cb579182015b828111156129ca5782518255916020019190600101906129af565b5b5090506129d891906129dc565b5090565b5b808211156129f55760008160009055506001016129dd565b5090565b6000612a0c612a07846137c0565b61379b565b905082815260208101848484011115612a2457600080fd5b612a2f848285613a0b565b509392505050565b600081359050612a468161431c565b92915050565b600081359050612a5b81614333565b92915050565b600081359050612a708161434a565b92915050565b600081519050612a858161434a565b92915050565b600082601f830112612a9c57600080fd5b8135612aac8482602086016129f9565b91505092915050565b600081359050612ac481614361565b92915050565b600060208284031215612adc57600080fd5b6000612aea84828501612a37565b91505092915050565b60008060408385031215612b0657600080fd5b6000612b1485828601612a37565b9250506020612b2585828601612a37565b9150509250929050565b600080600060608486031215612b4457600080fd5b6000612b5286828701612a37565b9350506020612b6386828701612a37565b9250506040612b7486828701612ab5565b9150509250925092565b60008060008060808587031215612b9457600080fd5b6000612ba287828801612a37565b9450506020612bb387828801612a37565b9350506040612bc487828801612ab5565b925050606085013567ffffffffffffffff811115612be157600080fd5b612bed87828801612a8b565b91505092959194509250565b60008060408385031215612c0c57600080fd5b6000612c1a85828601612a37565b9250506020612c2b85828601612a4c565b9150509250929050565b60008060408385031215612c4857600080fd5b6000612c5685828601612a37565b9250506020612c6785828601612ab5565b9150509250929050565b600060208284031215612c8357600080fd5b6000612c9184828501612a61565b91505092915050565b600060208284031215612cac57600080fd5b6000612cba84828501612a76565b91505092915050565b600060208284031215612cd557600080fd5b6000612ce384828501612ab5565b91505092915050565b6000612cf88383613253565b60208301905092915050565b612d0d81613997565b82525050565b6000612d1e82613816565b612d288185613844565b9350612d33836137f1565b8060005b83811015612d64578151612d4b8882612cec565b9750612d5683613837565b925050600181019050612d37565b5085935050505092915050565b612d7a816139a9565b82525050565b6000612d8b82613821565b612d958185613855565b9350612da5818560208601613a1a565b612dae81613be6565b840191505092915050565b6000612dc48261382c565b612dce8185613866565b9350612dde818560208601613a1a565b612de781613be6565b840191505092915050565b6000612dfd8261382c565b612e078185613877565b9350612e17818560208601613a1a565b80840191505092915050565b60008154612e3081613a4d565b612e3a8186613877565b94506001821660008114612e555760018114612e6657612e99565b60ff19831686528186019350612e99565b612e6f85613801565b60005b83811015612e9157815481890152600182019150602081019050612e72565b838801955050505b50505092915050565b6000612eaf603083613866565b9150612eba82613bf7565b604082019050919050565b6000612ed2602b83613866565b9150612edd82613c46565b604082019050919050565b6000612ef5603283613866565b9150612f0082613c95565b604082019050919050565b6000612f18602583613866565b9150612f2382613ce4565b604082019050919050565b6000612f3b601c83613866565b9150612f4682613d33565b602082019050919050565b6000612f5e600a83613877565b9150612f6982613d5c565b600a82019050919050565b6000612f81602483613866565b9150612f8c82613d85565b604082019050919050565b6000612fa4601983613866565b9150612faf82613dd4565b602082019050919050565b6000612fc7606383613877565b9150612fd282613dfd565b606382019050919050565b6000612fea600b83613877565b9150612ff582613e98565b600b82019050919050565b600061300d602c83613866565b915061301882613ec1565b604082019050919050565b6000613030600d83613877565b915061303b82613f10565b600d82019050919050565b6000613053603883613866565b915061305e82613f39565b604082019050919050565b6000613076602a83613866565b915061308182613f88565b604082019050919050565b6000613099602983613866565b91506130a482613fd7565b604082019050919050565b60006130bc602e83613866565b91506130c782614026565b604082019050919050565b60006130df600283613877565b91506130ea82614075565b600282019050919050565b6000613102602083613866565b915061310d8261409e565b602082019050919050565b6000613125603183613866565b9150613130826140c7565b604082019050919050565b6000613148602c83613866565b915061315382614116565b604082019050919050565b600061316b602f83613866565b915061317682614165565b604082019050919050565b600061318e600a83613877565b9150613199826141b4565b600a82019050919050565b60006131b1602183613866565b91506131bc826141dd565b604082019050919050565b60006131d4600a83613877565b91506131df8261422c565b600a82019050919050565b60006131f7601d83613877565b915061320282614255565b601d82019050919050565b600061321a603183613866565b91506132258261427e565b604082019050919050565b600061323d602c83613866565b9150613248826142cd565b604082019050919050565b61325c81613a01565b82525050565b61326b81613a01565b82525050565b600061327d8284612df2565b915081905092915050565b60006132948285612df2565b91506132a08284612df2565b91508190509392505050565b60006132b88286612df2565b91506132c48285612df2565b91506132d08284612df2565b9150819050949350505050565b60006132e98287612e23565b91506132f58286612df2565b91506133018285612df2565b915061330d8284612df2565b915061331882613023565b915081905095945050505050565b600061333182612f51565b915061333d8284612df2565b915081905092915050565b600061335382612fdd565b915061335f8284612df2565b915081905092915050565b600061337582613181565b91506133818285612df2565b915061338c82612fba565b91506133988284612df2565b91506133a3826130d2565b91508190509392505050565b60006133ba826131c7565b91506133c68284612df2565b915081905092915050565b60006133dc826131ea565b91506133e88284612df2565b915081905092915050565b60006020820190506134086000830184612d04565b92915050565b60006080820190506134236000830187612d04565b6134306020830186612d04565b61343d6040830185613262565b818103606083015261344f8184612d80565b905095945050505050565b600060408201905061346f6000830185612d04565b61347c6020830184613262565b9392505050565b6000602082019050818103600083015261349d8184612d13565b905092915050565b60006020820190506134ba6000830184612d71565b92915050565b600060208201905081810360008301526134da8184612db9565b905092915050565b600060608201905081810360008301526134fc8186612db9565b905061350b6020830185613262565b6135186040830184612d04565b949350505050565b6000602082019050818103600083015261353981612ea2565b9050919050565b6000602082019050818103600083015261355981612ec5565b9050919050565b6000602082019050818103600083015261357981612ee8565b9050919050565b6000602082019050818103600083015261359981612f0b565b9050919050565b600060208201905081810360008301526135b981612f2e565b9050919050565b600060208201905081810360008301526135d981612f74565b9050919050565b600060208201905081810360008301526135f981612f97565b9050919050565b6000602082019050818103600083015261361981613000565b9050919050565b6000602082019050818103600083015261363981613046565b9050919050565b6000602082019050818103600083015261365981613069565b9050919050565b600060208201905081810360008301526136798161308c565b9050919050565b60006020820190508181036000830152613699816130af565b9050919050565b600060208201905081810360008301526136b9816130f5565b9050919050565b600060208201905081810360008301526136d981613118565b9050919050565b600060208201905081810360008301526136f98161313b565b9050919050565b600060208201905081810360008301526137198161315e565b9050919050565b60006020820190508181036000830152613739816131a4565b9050919050565b600060208201905081810360008301526137598161320d565b9050919050565b6000602082019050818103600083015261377981613230565b9050919050565b60006020820190506137956000830184613262565b92915050565b60006137a56137b6565b90506137b18282613a7f565b919050565b6000604051905090565b600067ffffffffffffffff8211156137db576137da613bb7565b5b6137e482613be6565b9050602081019050919050565b6000819050602082019050919050565b60008190508160005260206000209050919050565b600081519050919050565b600081519050919050565b600081519050919050565b6000602082019050919050565b600082825260208201905092915050565b600082825260208201905092915050565b600082825260208201905092915050565b600081905092915050565b600061388d82613a01565b915061389883613a01565b9250827fffffffffffffffffffffffffffffffffffffffffffffffffffffffffffffffff038211156138cd576138cc613b2a565b5b828201905092915050565b60006138e382613a01565b91506138ee83613a01565b9250826138fe576138fd613b59565b5b828204905092915050565b600061391482613a01565b915061391f83613a01565b9250817fffffffffffffffffffffffffffffffffffffffffffffffffffffffffffffffff048311821515161561395857613957613b2a565b5b828202905092915050565b600061396e82613a01565b915061397983613a01565b92508282101561398c5761398b613b2a565b5b828203905092915050565b60006139a2826139e1565b9050919050565b60008115159050919050565b60007fffffffff0000000000000000000000000000000000000000000000000000000082169050919050565b600073ffffffffffffffffffffffffffffffffffffffff82169050919050565b6000819050919050565b82818337600083830152505050565b60005b83811015613a38578082015181840152602081019050613a1d565b83811115613a47576000848401525b50505050565b60006002820490506001821680613a6557607f821691505b60208210811415613a7957613a78613b88565b5b50919050565b613a8882613be6565b810181811067ffffffffffffffff82111715613aa757613aa6613bb7565b5b80604052505050565b6000613abb82613a01565b91507fffffffffffffffffffffffffffffffffffffffffffffffffffffffffffffffff821415613aee57613aed613b2a565b5b600182019050919050565b6000613b0482613a01565b9150613b0f83613a01565b925082613b1f57613b1e613b59565b5b828206905092915050565b7f4e487b7100000000000000000000000000000000000000000000000000000000600052601160045260246000fd5b7f4e487b7100000000000000000000000000000000000000000000000000000000600052601260045260246000fd5b7f4e487b7100000000000000000000000000000000000000000000000000000000600052602260045260246000fd5b7f4e487b7100000000000000000000000000000000000000000000000000000000600052604160045260246000fd5b6000601f19601f8301169050919050565b7f4e6f206d6f7265204e4654732066726f6d207468697320636f6c6c656374696f60008201527f6e2063616e206265206d696e7465642e00000000000000000000000000000000602082015250565b7f455243373231456e756d657261626c653a206f776e657220696e646578206f7560008201527f74206f6620626f756e6473000000000000000000000000000000000000000000602082015250565b7f4552433732313a207472616e7366657220746f206e6f6e20455243373231526560008201527f63656976657220696d706c656d656e7465720000000000000000000000000000602082015250565b7f4552433732313a207472616e736665722066726f6d20696e636f72726563742060008201527f6f776e6572000000000000000000000000000000000000000000000000000000602082015250565b7f4552433732313a20746f6b656e20616c7265616479206d696e74656400000000600082015250565b7f54484952445f574f524400000000000000000000000000000000000000000000600082015250565b7f4552433732313a207472616e7366657220746f20746865207a65726f2061646460008201527f7265737300000000000000000000000000000000000000000000000000000000602082015250565b7f4552433732313a20617070726f766520746f2063616c6c657200000000000000600082015250565b7f222c20226465736372697074696f6e223a20224120686967686c79206163636c60008201527f61696d656420636f6c6c656374696f6e206f6620737175617265732e222c202260208201527f696d616765223a2022646174613a696d6167652f7376672b786d6c3b6261736560408201527f36342c0000000000000000000000000000000000000000000000000000000000606082015250565b7f5345434f4e445f574f5244000000000000000000000000000000000000000000600082015250565b7f4552433732313a206f70657261746f7220717565727920666f72206e6f6e657860008201527f697374656e7420746f6b656e0000000000000000000000000000000000000000602082015250565b7f3c2f746578743e3c2f7376673e00000000000000000000000000000000000000600082015250565b7f4552433732313a20617070726f76652063616c6c6572206973206e6f74206f7760008201527f6e6572206e6f7220617070726f76656420666f7220616c6c0000000000000000602082015250565b7f4552433732313a2062616c616e636520717565727920666f7220746865207a6560008201527f726f206164647265737300000000000000000000000000000000000000000000602082015250565b7f4552433732313a206f776e657220717565727920666f72206e6f6e657869737460008201527f656e7420746f6b656e0000000000000000000000000000000000000000000000602082015250565b7f45524337323155524953746f726167653a2055524920736574206f66206e6f6e60008201527f6578697374656e7420746f6b656e000000000000000000000000000000000000602082015250565b7f227d000000000000000000000000000000000000000000000000000000000000600082015250565b7f4552433732313a206d696e7420746f20746865207a65726f2061646472657373600082015250565b7f45524337323155524953746f726167653a2055524920717565727920666f722060008201527f6e6f6e6578697374656e7420746f6b656e000000000000000000000000000000602082015250565b7f4552433732313a20617070726f76656420717565727920666f72206e6f6e657860008201527f697374656e7420746f6b656e0000000000000000000000000000000000000000602082015250565b7f4552433732314d657461646174613a2055524920717565727920666f72206e6f60008201527f6e6578697374656e7420746f6b656e0000000000000000000000000000000000602082015250565b7f7b226e616d65223a202200000000000000000000000000000000000000000000600082015250565b7f4552433732313a20617070726f76616c20746f2063757272656e74206f776e6560008201527f7200000000000000000000000000000000000000000000000000000000000000602082015250565b7f46495253545f574f524400000000000000000000000000000000000000000000600082015250565b7f646174613a6170706c69636174696f6e2f6a736f6e3b6261736536342c000000600082015250565b7f4552433732313a207472616e736665722063616c6c6572206973206e6f74206f60008201527f776e6572206e6f7220617070726f766564000000000000000000000000000000602082015250565b7f455243373231456e756d657261626c653a20676c6f62616c20696e646578206f60008201527f7574206f6620626f756e64730000000000000000000000000000000000000000602082015250565b61432581613997565b811461433057600080fd5b50565b61433c816139a9565b811461434757600080fd5b50565b614353816139b5565b811461435e57600080fd5b50565b61436a81613a01565b811461437557600080fd5b5056fe416e204e465420772f20494420257320686173206265656e206d696e74656420746f2025734142434445464748494a4b4c4d4e4f505152535455565758595a6162636465666768696a6b6c6d6e6f707172737475767778797a303132333435363738392b2fa2646970667358221220664414fd5fc6221f5e4809fcb93eb1196224ca1eff63b7aaa5e20b7539c4d0e364736f6c634300080100333c73766720786d6c6e733d27687474703a2f2f7777772e77332e6f72672f323030302f73766727207072657365727665417370656374526174696f3d27784d696e594d696e206d656574272076696577426f783d273020302033353020333530273e3c7374796c653e2e62617365207b2066696c6c3a2077686974653b20666f6e742d66616d696c793a2073657269663b20666f6e742d73697a653a20323470783b207d3c2f7374796c653e3c726563742077696474683d273130302527206865696768743d2731303025272066696c6c3d27626c61636b27202f3e3c7465787420783d273530252720793d273530252720636c6173733d27626173652720646f6d696e616e742d626173656c696e653d276d6964646c652720746578742d616e63686f723d276d6964646c65273e",
  "linkReferences": {},
  "deployedLinkReferences": {}
}