{
  "_format": "hh-sol-artifact-1",
  "contractName": "MyEpicNFT",
  "sourceName": "contracts/nft.sol",
  "abi": [
    {
      "inputs": [],
      "stateMutability": "nonpayable",
      "type": "constructor"
    },
    {
      "anonymous": false,
      "inputs": [
        {
          "indexed": true,
          "internalType": "address",
          "name": "owner",
          "type": "address"
        },
        {
          "indexed": true,
          "internalType": "address",
          "name": "approved",
          "type": "address"
        },
        {
          "indexed": true,
          "internalType": "uint256",
          "name": "tokenId",
          "type": "uint256"
        }
      ],
      "name": "Approval",
      "type": "event"
    },
    {
      "anonymous": false,
      "inputs": [
        {
          "indexed": true,
          "internalType": "address",
          "name": "owner",
          "type": "address"
        },
        {
          "indexed": true,
          "internalType": "address",
          "name": "operator",
          "type": "address"
        },
        {
          "indexed": false,
          "internalType": "bool",
          "name": "approved",
          "type": "bool"
        }
      ],
      "name": "ApprovalForAll",
      "type": "event"
    },
    {
      "anonymous": false,
      "inputs": [
        {
          "indexed": false,
          "internalType": "address",
          "name": "sender",
          "type": "address"
        },
        {
          "indexed": false,
          "internalType": "uint256",
          "name": "tokenId",
          "type": "uint256"
        }
      ],
      "name": "NewEpicNFTMinted",
      "type": "event"
    },
    {
      "anonymous": false,
      "inputs": [
        {
          "indexed": true,
          "internalType": "address",
          "name": "from",
          "type": "address"
        },
        {
          "indexed": true,
          "internalType": "address",
          "name": "to",
          "type": "address"
        },
        {
          "indexed": true,
          "internalType": "uint256",
          "name": "tokenId",
          "type": "uint256"
        }
      ],
      "name": "Transfer",
      "type": "event"
    },
    {
      "inputs": [
        {
          "internalType": "address",
          "name": "to",
          "type": "address"
        },
        {
          "internalType": "uint256",
          "name": "tokenId",
          "type": "uint256"
        }
      ],
      "name": "approve",
      "outputs": [],
      "stateMutability": "nonpayable",
      "type": "function"
    },
    {
      "inputs": [
        {
          "internalType": "address",
          "name": "owner",
          "type": "address"
        }
      ],
      "name": "balanceOf",
      "outputs": [
        {
          "internalType": "uint256",
          "name": "",
          "type": "uint256"
        }
      ],
      "stateMutability": "view",
      "type": "function"
    },
    {
      "inputs": [
        {
          "internalType": "uint256",
          "name": "tokenId",
          "type": "uint256"
        }
      ],
      "name": "getApproved",
      "outputs": [
        {
          "internalType": "address",
          "name": "",
          "type": "address"
        }
      ],
      "stateMutability": "view",
      "type": "function"
    },
    {
      "inputs": [
        {
          "internalType": "address",
          "name": "owner",
          "type": "address"
        },
        {
          "internalType": "address",
          "name": "operator",
          "type": "address"
        }
      ],
      "name": "isApprovedForAll",
      "outputs": [
        {
          "internalType": "bool",
          "name": "",
          "type": "bool"
        }
      ],
      "stateMutability": "view",
      "type": "function"
    },
    {
      "inputs": [],
      "name": "makeAnEpicNFT",
      "outputs": [],
      "stateMutability": "nonpayable",
      "type": "function"
    },
    {
      "inputs": [],
      "name": "name",
      "outputs": [
        {
          "internalType": "string",
          "name": "",
          "type": "string"
        }
      ],
      "stateMutability": "view",
      "type": "function"
    },
    {
      "inputs": [],
      "name": "numberOfTokensMinted",
      "outputs": [
        {
          "internalType": "uint256",
          "name": "",
          "type": "uint256"
        }
      ],
      "stateMutability": "view",
      "type": "function"
    },
    {
      "inputs": [
        {
          "internalType": "uint256",
          "name": "tokenId",
          "type": "uint256"
        }
      ],
      "name": "ownerOf",
      "outputs": [
        {
          "internalType": "address",
          "name": "",
          "type": "address"
        }
      ],
      "stateMutability": "view",
      "type": "function"
    },
    {
      "inputs": [
        {
          "internalType": "uint256",
          "name": "tokenId",
          "type": "uint256"
        }
      ],
      "name": "pickRandomFirstWord",
      "outputs": [
        {
          "internalType": "string",
          "name": "",
          "type": "string"
        }
      ],
      "stateMutability": "view",
      "type": "function"
    },
    {
      "inputs": [
        {
          "internalType": "uint256",
          "name": "tokenId",
          "type": "uint256"
        }
      ],
      "name": "pickRandomSecondWord",
      "outputs": [
        {
          "internalType": "string",
          "name": "",
          "type": "string"
        }
      ],
      "stateMutability": "view",
      "type": "function"
    },
    {
      "inputs": [
        {
          "internalType": "uint256",
          "name": "tokenId",
          "type": "uint256"
        }
      ],
      "name": "pickRandomThirdWord",
      "outputs": [
        {
          "internalType": "string",
          "name": "",
          "type": "string"
        }
      ],
      "stateMutability": "view",
      "type": "function"
    },
    {
      "inputs": [
        {
          "internalType": "address",
          "name": "from",
          "type": "address"
        },
        {
          "internalType": "address",
          "name": "to",
          "type": "address"
        },
        {
          "internalType": "uint256",
          "name": "tokenId",
          "type": "uint256"
        }
      ],
      "name": "safeTransferFrom",
      "outputs": [],
      "stateMutability": "nonpayable",
      "type": "function"
    },
    {
      "inputs": [
        {
          "internalType": "address",
          "name": "from",
          "type": "address"
        },
        {
          "internalType": "address",
          "name": "to",
          "type": "address"
        },
        {
          "internalType": "uint256",
          "name": "tokenId",
          "type": "uint256"
        },
        {
          "internalType": "bytes",
          "name": "_data",
          "type": "bytes"
        }
      ],
      "name": "safeTransferFrom",
      "outputs": [],
      "stateMutability": "nonpayable",
      "type": "function"
    },
    {
      "inputs": [
        {
          "internalType": "address",
          "name": "operator",
          "type": "address"
        },
        {
          "internalType": "bool",
          "name": "approved",
          "type": "bool"
        }
      ],
      "name": "setApprovalForAll",
      "outputs": [],
      "stateMutability": "nonpayable",
      "type": "function"
    },
    {
      "inputs": [
        {
          "internalType": "bytes4",
          "name": "interfaceId",
          "type": "bytes4"
        }
      ],
      "name": "supportsInterface",
      "outputs": [
        {
          "internalType": "bool",
          "name": "",
          "type": "bool"
        }
      ],
      "stateMutability": "view",
      "type": "function"
    },
    {
      "inputs": [],
      "name": "symbol",
      "outputs": [
        {
          "internalType": "string",
          "name": "",
          "type": "string"
        }
      ],
      "stateMutability": "view",
      "type": "function"
    },
    {
      "inputs": [
        {
          "internalType": "uint256",
          "name": "index",
          "type": "uint256"
        }
      ],
      "name": "tokenByIndex",
      "outputs": [
        {
          "internalType": "uint256",
          "name": "",
          "type": "uint256"
        }
      ],
      "stateMutability": "view",
      "type": "function"
    },
    {
      "inputs": [
        {
          "internalType": "address",
          "name": "owner",
          "type": "address"
        },
        {
          "internalType": "uint256",
          "name": "index",
          "type": "uint256"
        }
      ],
      "name": "tokenOfOwnerByIndex",
      "outputs": [
        {
          "internalType": "uint256",
          "name": "",
          "type": "uint256"
        }
      ],
      "stateMutability": "view",
      "type": "function"
    },
    {
      "inputs": [
        {
          "internalType": "uint256",
          "name": "tokenId",
          "type": "uint256"
        }
      ],
      "name": "tokenURI",
      "outputs": [
        {
          "internalType": "string",
          "name": "",
          "type": "string"
        }
      ],
      "stateMutability": "view",
      "type": "function"
    },
    {
      "inputs": [
        {
          "internalType": "address",
          "name": "_owner",
          "type": "address"
        }
      ],
      "name": "tokensOfOwner",
      "outputs": [
        {
          "internalType": "uint256[]",
          "name": "",
          "type": "uint256[]"
        }
      ],
      "stateMutability": "view",
      "type": "function"
    },
    {
      "inputs": [],
      "name": "totalSupply",
      "outputs": [
        {
          "internalType": "uint256",
          "name": "",
          "type": "uint256"
        }
      ],
      "stateMutability": "view",
      "type": "function"
    },
    {
      "inputs": [
        {
          "internalType": "address",
          "name": "from",
          "type": "address"
        },
        {
          "internalType": "address",
          "name": "to",
          "type": "address"
        },
        {
          "internalType": "uint256",
          "name": "tokenId",
          "type": "uint256"
        }
      ],
      "name": "transferFrom",
      "outputs": [],
      "stateMutability": "nonpayable",
      "type": "function"
    }
  ],
  "bytecode": "0x60806040526103e8600c5560405180610160016040528061012f815260200162004e8c61012f9139600d90805190602001906200003e92919062000684565b506040518060c001604052806040518060400160405280600581526020017f4372617a7900000000000000000000000000000000000000000000000000000081525081526020016040518060400160405280600481526020017f57696c640000000000000000000000000000000000000000000000000000000081525081526020016040518060400160405280600581526020017f486170707900000000000000000000000000000000000000000000000000000081525081526020016040518060400160405280600381526020017f536164000000000000000000000000000000000000000000000000000000000081525081526020016040518060400160405280600581526020017f416e67727900000000000000000000000000000000000000000000000000000081525081526020016040518060400160405280600681526020017f5363617265640000000000000000000000000000000000000000000000000000815250815250600e906006620001bc92919062000715565b506040518060c001604052806040518060400160405280600681526020017f4261746d616e000000000000000000000000000000000000000000000000000081525081526020016040518060400160405280600481526020017f54686f720000000000000000000000000000000000000000000000000000000081525081526020016040518060400160405280600881526020017f53757065726d616e00000000000000000000000000000000000000000000000081525081526020016040518060400160405280600981526020017f5370696465726d616e000000000000000000000000000000000000000000000081525081526020016040518060400160405280600481526020017f48756c6b0000000000000000000000000000000000000000000000000000000081525081526020016040518060400160405280600481526020017f4c6f6b6900000000000000000000000000000000000000000000000000000000815250815250600f9060066200033a92919062000715565b506040518060c001604052806040518060400160405280600781526020017f476972616666650000000000000000000000000000000000000000000000000081525081526020016040518060400160405280600581526020017f536861726b00000000000000000000000000000000000000000000000000000081525081526020016040518060400160405280600881526020017f4b616e6761726f6f00000000000000000000000000000000000000000000000081525081526020016040518060400160405280600881526020017f456c657068616e7400000000000000000000000000000000000000000000000081525081526020016040518060400160405280600581526020017f536e616b6500000000000000000000000000000000000000000000000000000081525081526020016040518060400160405280600581526020017f4561676c650000000000000000000000000000000000000000000000000000008152508152506010906006620004b892919062000715565b50348015620004c657600080fd5b506040518060400160405280600981526020017f5371756172654e465400000000000000000000000000000000000000000000008152506040518060400160405280600681526020017f535155415245000000000000000000000000000000000000000000000000000081525081600090805190602001906200054b92919062000684565b5080600190805190602001906200056492919062000684565b505050620005b26040518060400160405280601c81526020017f54686973206973206d79204e465420636f6e74726163742e20676d2100000000815250620005b860201b620012621760201c565b62000936565b6200065881604051602401620005cf91906200084a565b6040516020818303038152906040527f41304fac000000000000000000000000000000000000000000000000000000007bffffffffffffffffffffffffffffffffffffffffffffffffffffffff19166020820180517bffffffffffffffffffffffffffffffffffffffffffffffffffffffff83818316178352505050506200065b60201b60201c565b50565b60008151905060006a636f6e736f6c652e6c6f679050602083016000808483855afa5050505050565b8280546200069290620008c0565b90600052602060002090601f016020900481019282620006b6576000855562000702565b82601f10620006d157805160ff191683800117855562000702565b8280016001018555821562000702579182015b8281111562000701578251825591602001919060010190620006e4565b5b5090506200071191906200077c565b5090565b82805482825590600052602060002090810192821562000769579160200282015b82811115620007685782518290805190602001906200075792919062000684565b509160200191906001019062000736565b5b5090506200077891906200079b565b5090565b5b80821115620007975760008160009055506001016200077d565b5090565b5b80821115620007bf5760008181620007b59190620007c3565b506001016200079c565b5090565b508054620007d190620008c0565b6000825580601f10620007e5575062000806565b601f0160209004906000526020600020908101906200080591906200077c565b5b50565b600062000816826200086e565b62000822818562000879565b9350620008348185602086016200088a565b6200083f8162000925565b840191505092915050565b6000602082019050818103600083015262000866818462000809565b905092915050565b600081519050919050565b600082825260208201905092915050565b60005b83811015620008aa5780820151818401526020810190506200088d565b83811115620008ba576000848401525b50505050565b60006002820490506001821680620008d957607f821691505b60208210811415620008f057620008ef620008f6565b5b50919050565b7f4e487b7100000000000000000000000000000000000000000000000000000000600052602260045260246000fd5b6000601f19601f8301169050919050565b61454680620009466000396000f3fe608060405234801561001057600080fd5b50600436106101425760003560e01c80636a23f584116100b8578063b187301f1161007c578063b187301f146103af578063b88d4fde146103df578063c575757a146103fb578063c87b56dd1461042b578063de9d132f1461045b578063e985e9c51461046557610142565b80636a23f584146102f757806370a08231146103155780638462151c1461034557806395d89b4114610375578063a22cb4651461039357610142565b806323b872dd1161010a57806323b872dd146101ff5780632de38d681461021b5780632f745c591461024b57806342842e0e1461027b5780634f6ccce7146102975780636352211e146102c757610142565b806301ffc9a71461014757806306fdde0314610177578063081812fc14610195578063095ea7b3146101c557806318160ddd146101e1575b600080fd5b610161600480360381019061015c9190612da4565b610495565b60405161016e91906135d8565b60405180910390f35b61017f6104a7565b60405161018c91906135f3565b60405180910390f35b6101af60048036038101906101aa9190612df6565b610539565b6040516101bc9190613526565b60405180910390f35b6101df60048036038101906101da9190612d68565b6105be565b005b6101e96106d6565b6040516101f691906138b3565b60405180910390f35b61021960048036038101906102149190612c62565b6106e3565b005b61023560048036038101906102309190612df6565b610743565b60405161024291906135f3565b60405180910390f35b61026560048036038101906102609190612d68565b610861565b60405161027291906138b3565b60405180910390f35b61029560048036038101906102909190612c62565b610906565b005b6102b160048036038101906102ac9190612df6565b610926565b6040516102be91906138b3565b60405180910390f35b6102e160048036038101906102dc9190612df6565b6109bd565b6040516102ee9190613526565b60405180910390f35b6102ff610a6f565b60405161030c91906138b3565b60405180910390f35b61032f600480360381019061032a9190612bfd565b610a8c565b60405161033c91906138b3565b60405180910390f35b61035f600480360381019061035a9190612bfd565b610b44565b60405161036c91906135b6565b60405180910390f35b61037d610c3e565b60405161038a91906135f3565b60405180910390f35b6103ad60048036038101906103a89190612d2c565b610cd0565b005b6103c960048036038101906103c49190612df6565b610ce6565b6040516103d691906135f3565b60405180910390f35b6103f960048036038101906103f49190612cb1565b610e04565b005b61041560048036038101906104109190612df6565b610e66565b60405161042291906135f3565b60405180910390f35b61044560048036038101906104409190612df6565b610f84565b60405161045291906135f3565b60405180910390f35b610463610f96565b005b61047f600480360381019061047a9190612c26565b6111ce565b60405161048c91906135d8565b60405180910390f35b60006104a0826112fb565b9050919050565b6060600080546104b690613b80565b80601f01602080910402602001604051908101604052809291908181526020018280546104e290613b80565b801561052f5780601f106105045761010080835404028352916020019161052f565b820191906000526020600020905b81548152906001019060200180831161051257829003601f168201915b5050505050905090565b600061054482611375565b610583576040517f08c379a000000000000000000000000000000000000000000000000000000000815260040161057a90613813565b60405180910390fd5b6004600083815260200190815260200160002060009054906101000a900473ffffffffffffffffffffffffffffffffffffffff169050919050565b60006105c9826109bd565b90508073ffffffffffffffffffffffffffffffffffffffff168373ffffffffffffffffffffffffffffffffffffffff16141561063a576040517f08c379a000000000000000000000000000000000000000000000000000000000815260040161063190613853565b60405180910390fd5b8073ffffffffffffffffffffffffffffffffffffffff166106596113e1565b73ffffffffffffffffffffffffffffffffffffffff1614806106885750610687816106826113e1565b6111ce565b5b6106c7576040517f08c379a00000000000000000000000000000000000000000000000000000000081526004016106be90613753565b60405180910390fd5b6106d183836113e9565b505050565b6000600880549050905090565b6106f46106ee6113e1565b826114a2565b610733576040517f08c379a000000000000000000000000000000000000000000000000000000000815260040161072a90613873565b60405180910390fd5b61073e838383611580565b505050565b60606000610777610753846117e7565b60405160200161076391906134e2565b604051602081830303815290604052611994565b9050600e805490508161078a9190613c2c565b9050600e81815481106107c6577f4e487b7100000000000000000000000000000000000000000000000000000000600052603260045260246000fd5b9060005260206000200180546107db90613b80565b80601f016020809104026020016040519081016040528092919081815260200182805461080790613b80565b80156108545780601f1061082957610100808354040283529160200191610854565b820191906000526020600020905b81548152906001019060200180831161083757829003601f168201915b5050505050915050919050565b600061086c83610a8c565b82106108ad576040517f08c379a00000000000000000000000000000000000000000000000000000000081526004016108a490613673565b60405180910390fd5b600660008473ffffffffffffffffffffffffffffffffffffffff1673ffffffffffffffffffffffffffffffffffffffff168152602001908152602001600020600083815260200190815260200160002054905092915050565b61092183838360405180602001604052806000815250610e04565b505050565b60006109306106d6565b8210610971576040517f08c379a000000000000000000000000000000000000000000000000000000000815260040161096890613893565b60405180910390fd5b600882815481106109ab577f4e487b7100000000000000000000000000000000000000000000000000000000600052603260045260246000fd5b90600052602060002001549050919050565b6000806002600084815260200190815260200160002060009054906101000a900473ffffffffffffffffffffffffffffffffffffffff169050600073ffffffffffffffffffffffffffffffffffffffff168173ffffffffffffffffffffffffffffffffffffffff161415610a66576040517f08c379a0000000000000000000000000000000000000000000000000000000008152600401610a5d90613793565b60405180910390fd5b80915050919050565b60006001610a7d600b6119c7565b610a8791906139b5565b905090565b60008073ffffffffffffffffffffffffffffffffffffffff168273ffffffffffffffffffffffffffffffffffffffff161415610afd576040517f08c379a0000000000000000000000000000000000000000000000000000000008152600401610af490613773565b60405180910390fd5b600360008373ffffffffffffffffffffffffffffffffffffffff1673ffffffffffffffffffffffffffffffffffffffff168152602001908152602001600020549050919050565b60606000610b5183610a8c565b905060008167ffffffffffffffff811115610b95577f4e487b7100000000000000000000000000000000000000000000000000000000600052604160045260246000fd5b604051908082528060200260200182016040528015610bc35781602001602082028036833780820191505090505b50905060005b82811015610c3357610bdb8582610861565b828281518110610c14577f4e487b7100000000000000000000000000000000000000000000000000000000600052603260045260246000fd5b6020026020010181815250508080610c2b90613be3565b915050610bc9565b508092505050919050565b606060018054610c4d90613b80565b80601f0160208091040260200160405190810160405280929190818152602001828054610c7990613b80565b8015610cc65780601f10610c9b57610100808354040283529160200191610cc6565b820191906000526020600020905b815481529060010190602001808311610ca957829003601f168201915b5050505050905090565b610ce2610cdb6113e1565b83836119d5565b5050565b60606000610d1a610cf6846117e7565b604051602001610d06919061347b565b604051602081830303815290604052611994565b9050600f8054905081610d2d9190613c2c565b9050600f8181548110610d69577f4e487b7100000000000000000000000000000000000000000000000000000000600052603260045260246000fd5b906000526020600020018054610d7e90613b80565b80601f0160208091040260200160405190810160405280929190818152602001828054610daa90613b80565b8015610df75780601f10610dcc57610100808354040283529160200191610df7565b820191906000526020600020905b815481529060010190602001808311610dda57829003601f168201915b5050505050915050919050565b610e15610e0f6113e1565b836114a2565b610e54576040517f08c379a0000000000000000000000000000000000000000000000000000000008152600401610e4b90613873565b60405180910390fd5b610e6084848484611b42565b50505050565b60606000610e9a610e76846117e7565b604051602001610e869190613459565b604051602081830303815290604052611994565b905060108054905081610ead9190613c2c565b905060108181548110610ee9577f4e487b7100000000000000000000000000000000000000000000000000000000600052603260045260246000fd5b906000526020600020018054610efe90613b80565b80601f0160208091040260200160405190810160405280929190818152602001828054610f2a90613b80565b8015610f775780601f10610f4c57610100808354040283529160200191610f77565b820191906000526020600020905b815481529060010190602001808311610f5a57829003601f168201915b5050505050915050919050565b6060610f8f82611b9e565b9050919050565b6000610fa2600b6119c7565b9050600c548110610fe8576040517f08c379a0000000000000000000000000000000000000000000000000000000008152600401610fdf90613653565b60405180910390fd5b6000610ff382610743565b9050600061100083610ce6565b9050600061100d84610e66565b90506000838383604051602001611026939291906133df565b60405160208183030381529060405290506000600d8585856040516020016110519493929190613410565b604051602081830303815290604052905060006110968361107184611cf0565b60405160200161108292919061349d565b604051602081830303815290604052611cf0565b90506000816040516020016110ab9190613504565b60405160208183030381529060405290506110fa6040518060400160405280601581526020017f0a2d2d2d2d2d2d2d2d2d2d2d2d2d2d2d2d2d2d2d2d0000000000000000000000815250611262565b61110383611262565b6111416040518060400160405280601581526020017f2d2d2d2d2d2d2d2d2d2d2d2d2d2d2d2d2d2d2d2d0a0000000000000000000000815250611262565b61114a81611262565b6111543389611e7a565b61115e8882611e98565b6111816040518060600160405280602581526020016144ac602591398933611f0c565b61118b600b611fab565b7febb98688741ffa4c7589bf325de30cf7becb63de567842e1ccdb6cb949fdc82c33896040516111bc92919061358d565b60405180910390a15050505050505050565b6000600560008473ffffffffffffffffffffffffffffffffffffffff1673ffffffffffffffffffffffffffffffffffffffff16815260200190815260200160002060008373ffffffffffffffffffffffffffffffffffffffff1673ffffffffffffffffffffffffffffffffffffffff16815260200190815260200160002060009054906101000a900460ff16905092915050565b6112f88160405160240161127691906135f3565b6040516020818303038152906040527f41304fac000000000000000000000000000000000000000000000000000000007bffffffffffffffffffffffffffffffffffffffffffffffffffffffff19166020820180517bffffffffffffffffffffffffffffffffffffffffffffffffffffffff8381831617835250505050611fc1565b50565b60007f780e9d63000000000000000000000000000000000000000000000000000000007bffffffffffffffffffffffffffffffffffffffffffffffffffffffff1916827bffffffffffffffffffffffffffffffffffffffffffffffffffffffff1916148061136e575061136d82611fea565b5b9050919050565b60008073ffffffffffffffffffffffffffffffffffffffff166002600084815260200190815260200160002060009054906101000a900473ffffffffffffffffffffffffffffffffffffffff1673ffffffffffffffffffffffffffffffffffffffff1614159050919050565b600033905090565b816004600083815260200190815260200160002060006101000a81548173ffffffffffffffffffffffffffffffffffffffff021916908373ffffffffffffffffffffffffffffffffffffffff160217905550808273ffffffffffffffffffffffffffffffffffffffff1661145c836109bd565b73ffffffffffffffffffffffffffffffffffffffff167f8c5be1e5ebec7d5bd14f71427d1e84f3dd0314c0f7b2291e5b200ac8c7c3b92560405160405180910390a45050565b60006114ad82611375565b6114ec576040517f08c379a00000000000000000000000000000000000000000000000000000000081526004016114e390613733565b60405180910390fd5b60006114f7836109bd565b90508073ffffffffffffffffffffffffffffffffffffffff168473ffffffffffffffffffffffffffffffffffffffff16148061156657508373ffffffffffffffffffffffffffffffffffffffff1661154e84610539565b73ffffffffffffffffffffffffffffffffffffffff16145b80611577575061157681856111ce565b5b91505092915050565b8273ffffffffffffffffffffffffffffffffffffffff166115a0826109bd565b73ffffffffffffffffffffffffffffffffffffffff16146115f6576040517f08c379a00000000000000000000000000000000000000000000000000000000081526004016115ed906136b3565b60405180910390fd5b600073ffffffffffffffffffffffffffffffffffffffff168273ffffffffffffffffffffffffffffffffffffffff161415611666576040517f08c379a000000000000000000000000000000000000000000000000000000000815260040161165d906136f3565b60405180910390fd5b6116718383836120cc565b61167c6000826113e9565b6001600360008573ffffffffffffffffffffffffffffffffffffffff1673ffffffffffffffffffffffffffffffffffffffff16815260200190815260200160002060008282546116cc9190613a96565b925050819055506001600360008473ffffffffffffffffffffffffffffffffffffffff1673ffffffffffffffffffffffffffffffffffffffff168152602001908152602001600020600082825461172391906139b5565b92505081905550816002600083815260200190815260200160002060006101000a81548173ffffffffffffffffffffffffffffffffffffffff021916908373ffffffffffffffffffffffffffffffffffffffff160217905550808273ffffffffffffffffffffffffffffffffffffffff168473ffffffffffffffffffffffffffffffffffffffff167fddf252ad1be2c89b69c2b068fc378daa952ba7f163c4a11628f55a4df523b3ef60405160405180910390a46117e28383836120dc565b505050565b6060600082141561182f576040518060400160405280600181526020017f3000000000000000000000000000000000000000000000000000000000000000815250905061198f565b600082905060005b6000821461186157808061184a90613be3565b915050600a8261185a9190613a0b565b9150611837565b60008167ffffffffffffffff8111156118a3577f4e487b7100000000000000000000000000000000000000000000000000000000600052604160045260246000fd5b6040519080825280601f01601f1916602001820160405280156118d55781602001600182028036833780820191505090505b5090505b60008514611988576001826118ee9190613a96565b9150600a856118fd9190613c2c565b603061190991906139b5565b60f81b818381518110611945577f4e487b7100000000000000000000000000000000000000000000000000000000600052603260045260246000fd5b60200101907effffffffffffffffffffffffffffffffffffffffffffffffffffffffffffff1916908160001a905350600a856119819190613a0b565b94506118d9565b8093505050505b919050565b6000816040516020016119a791906133a4565b6040516020818303038152906040528051906020012060001c9050919050565b600081600001549050919050565b8173ffffffffffffffffffffffffffffffffffffffff168373ffffffffffffffffffffffffffffffffffffffff161415611a44576040517f08c379a0000000000000000000000000000000000000000000000000000000008152600401611a3b90613713565b60405180910390fd5b80600560008573ffffffffffffffffffffffffffffffffffffffff1673ffffffffffffffffffffffffffffffffffffffff16815260200190815260200160002060008473ffffffffffffffffffffffffffffffffffffffff1673ffffffffffffffffffffffffffffffffffffffff16815260200190815260200160002060006101000a81548160ff0219169083151502179055508173ffffffffffffffffffffffffffffffffffffffff168373ffffffffffffffffffffffffffffffffffffffff167f17307eab39ab6107e8899845ad3d59bd9653f200f220920489ca2b5937696c3183604051611b3591906135d8565b60405180910390a3505050565b611b4d848484611580565b611b59848484846120e1565b611b98576040517f08c379a0000000000000000000000000000000000000000000000000000000008152600401611b8f90613693565b60405180910390fd5b50505050565b6060611ba982611375565b611be8576040517f08c379a0000000000000000000000000000000000000000000000000000000008152600401611bdf906137f3565b60405180910390fd5b6000600a60008481526020019081526020016000208054611c0890613b80565b80601f0160208091040260200160405190810160405280929190818152602001828054611c3490613b80565b8015611c815780601f10611c5657610100808354040283529160200191611c81565b820191906000526020600020905b815481529060010190602001808311611c6457829003601f168201915b505050505090506000611c92612278565b9050600081511415611ca8578192505050611ceb565b600082511115611cdd578082604051602001611cc59291906133bb565b60405160208183030381529060405292505050611ceb565b611ce68461228f565b925050505b919050565b6060600082511415611d1357604051806020016040528060008152509050611e75565b60006040518060600160405280604081526020016144d16040913990506000600360028551611d4291906139b5565b611d4c9190613a0b565b6004611d589190613a3c565b67ffffffffffffffff811115611d97577f4e487b7100000000000000000000000000000000000000000000000000000000600052604160045260246000fd5b6040519080825280601f01601f191660200182016040528015611dc95781602001600182028036833780820191505090505b509050600182016020820185865187015b80821015611e35576003820191508151603f8160121c168501518453600184019350603f81600c1c168501518453600184019350603f8160061c168501518453600184019350603f8116850151845360018401935050611dda565b5050600386510660018114611e515760028114611e6457611e6c565b603d6001830353603d6002830353611e6c565b603d60018303535b50505080925050505b919050565b611e94828260405180602001604052806000815250612336565b5050565b611ea182611375565b611ee0576040517f08c379a0000000000000000000000000000000000000000000000000000000008152600401611ed7906137b3565b60405180910390fd5b80600a60008481526020019081526020016000209080519060200190611f07929190612a89565b505050565b611fa6838383604051602401611f2493929190613615565b6040516020818303038152906040527fe3849f79000000000000000000000000000000000000000000000000000000007bffffffffffffffffffffffffffffffffffffffffffffffffffffffff19166020820180517bffffffffffffffffffffffffffffffffffffffffffffffffffffffff8381831617835250505050611fc1565b505050565b6001816000016000828254019250508190555050565b60008151905060006a636f6e736f6c652e6c6f679050602083016000808483855afa5050505050565b60007f80ac58cd000000000000000000000000000000000000000000000000000000007bffffffffffffffffffffffffffffffffffffffffffffffffffffffff1916827bffffffffffffffffffffffffffffffffffffffffffffffffffffffff191614806120b557507f5b5e139f000000000000000000000000000000000000000000000000000000007bffffffffffffffffffffffffffffffffffffffffffffffffffffffff1916827bffffffffffffffffffffffffffffffffffffffffffffffffffffffff1916145b806120c557506120c482612391565b5b9050919050565b6120d78383836123fb565b505050565b505050565b60006121028473ffffffffffffffffffffffffffffffffffffffff1661250f565b1561226b578373ffffffffffffffffffffffffffffffffffffffff1663150b7a0261212b6113e1565b8786866040518563ffffffff1660e01b815260040161214d9493929190613541565b602060405180830381600087803b15801561216757600080fd5b505af192505050801561219857506040513d601f19601f820116820180604052508101906121959190612dcd565b60015b61221b573d80600081146121c8576040519150601f19603f3d011682016040523d82523d6000602084013e6121cd565b606091505b50600081511415612213576040517f08c379a000000000000000000000000000000000000000000000000000000000815260040161220a90613693565b60405180910390fd5b805181602001fd5b63150b7a0260e01b7bffffffffffffffffffffffffffffffffffffffffffffffffffffffff1916817bffffffffffffffffffffffffffffffffffffffffffffffffffffffff191614915050612270565b600190505b949350505050565b606060405180602001604052806000815250905090565b606061229a82611375565b6122d9576040517f08c379a00000000000000000000000000000000000000000000000000000000081526004016122d090613833565b60405180910390fd5b60006122e3612278565b90506000815111612303576040518060200160405280600081525061232e565b8061230d846117e7565b60405160200161231e9291906133bb565b6040516020818303038152906040525b915050919050565b6123408383612532565b61234d60008484846120e1565b61238c576040517f08c379a000000000000000000000000000000000000000000000000000000000815260040161238390613693565b60405180910390fd5b505050565b60007f01ffc9a7000000000000000000000000000000000000000000000000000000007bffffffffffffffffffffffffffffffffffffffffffffffffffffffff1916827bffffffffffffffffffffffffffffffffffffffffffffffffffffffff1916149050919050565b61240683838361270c565b600073ffffffffffffffffffffffffffffffffffffffff168373ffffffffffffffffffffffffffffffffffffffff1614156124495761244481612711565b612488565b8173ffffffffffffffffffffffffffffffffffffffff168373ffffffffffffffffffffffffffffffffffffffff161461248757612486838261275a565b5b5b600073ffffffffffffffffffffffffffffffffffffffff168273ffffffffffffffffffffffffffffffffffffffff1614156124cb576124c6816128c7565b61250a565b8273ffffffffffffffffffffffffffffffffffffffff168273ffffffffffffffffffffffffffffffffffffffff1614612509576125088282612a0a565b5b5b505050565b6000808273ffffffffffffffffffffffffffffffffffffffff163b119050919050565b600073ffffffffffffffffffffffffffffffffffffffff168273ffffffffffffffffffffffffffffffffffffffff1614156125a2576040517f08c379a0000000000000000000000000000000000000000000000000000000008152600401612599906137d3565b60405180910390fd5b6125ab81611375565b156125eb576040517f08c379a00000000000000000000000000000000000000000000000000000000081526004016125e2906136d3565b60405180910390fd5b6125f7600083836120cc565b6001600360008473ffffffffffffffffffffffffffffffffffffffff1673ffffffffffffffffffffffffffffffffffffffff168152602001908152602001600020600082825461264791906139b5565b92505081905550816002600083815260200190815260200160002060006101000a81548173ffffffffffffffffffffffffffffffffffffffff021916908373ffffffffffffffffffffffffffffffffffffffff160217905550808273ffffffffffffffffffffffffffffffffffffffff16600073ffffffffffffffffffffffffffffffffffffffff167fddf252ad1be2c89b69c2b068fc378daa952ba7f163c4a11628f55a4df523b3ef60405160405180910390a4612708600083836120dc565b5050565b505050565b6008805490506009600083815260200190815260200160002081905550600881908060018154018082558091505060019003906000526020600020016000909190919091505550565b6000600161276784610a8c565b6127719190613a96565b9050600060076000848152602001908152602001600020549050818114612856576000600660008673ffffffffffffffffffffffffffffffffffffffff1673ffffffffffffffffffffffffffffffffffffffff168152602001908152602001600020600084815260200190815260200160002054905080600660008773ffffffffffffffffffffffffffffffffffffffff1673ffffffffffffffffffffffffffffffffffffffff168152602001908152602001600020600084815260200190815260200160002081905550816007600083815260200190815260200160002081905550505b6007600084815260200190815260200160002060009055600660008573ffffffffffffffffffffffffffffffffffffffff1673ffffffffffffffffffffffffffffffffffffffff16815260200190815260200160002060008381526020019081526020016000206000905550505050565b600060016008805490506128db9190613a96565b9050600060096000848152602001908152602001600020549050600060088381548110612931577f4e487b7100000000000000000000000000000000000000000000000000000000600052603260045260246000fd5b906000526020600020015490508060088381548110612979577f4e487b7100000000000000000000000000000000000000000000000000000000600052603260045260246000fd5b9060005260206000200181905550816009600083815260200190815260200160002081905550600960008581526020019081526020016000206000905560088054806129ee577f4e487b7100000000000000000000000000000000000000000000000000000000600052603160045260246000fd5b6001900381819060005260206000200160009055905550505050565b6000612a1583610a8c565b905081600660008573ffffffffffffffffffffffffffffffffffffffff1673ffffffffffffffffffffffffffffffffffffffff168152602001908152602001600020600083815260200190815260200160002081905550806007600084815260200190815260200160002081905550505050565b828054612a9590613b80565b90600052602060002090601f016020900481019282612ab75760008555612afe565b82601f10612ad057805160ff1916838001178555612afe565b82800160010185558215612afe579182015b82811115612afd578251825591602001919060010190612ae2565b5b509050612b0b9190612b0f565b5090565b5b80821115612b28576000816000905550600101612b10565b5090565b6000612b3f612b3a846138f3565b6138ce565b905082815260208101848484011115612b5757600080fd5b612b62848285613b3e565b509392505050565b600081359050612b798161444f565b92915050565b600081359050612b8e81614466565b92915050565b600081359050612ba38161447d565b92915050565b600081519050612bb88161447d565b92915050565b600082601f830112612bcf57600080fd5b8135612bdf848260208601612b2c565b91505092915050565b600081359050612bf781614494565b92915050565b600060208284031215612c0f57600080fd5b6000612c1d84828501612b6a565b91505092915050565b60008060408385031215612c3957600080fd5b6000612c4785828601612b6a565b9250506020612c5885828601612b6a565b9150509250929050565b600080600060608486031215612c7757600080fd5b6000612c8586828701612b6a565b9350506020612c9686828701612b6a565b9250506040612ca786828701612be8565b9150509250925092565b60008060008060808587031215612cc757600080fd5b6000612cd587828801612b6a565b9450506020612ce687828801612b6a565b9350506040612cf787828801612be8565b925050606085013567ffffffffffffffff811115612d1457600080fd5b612d2087828801612bbe565b91505092959194509250565b60008060408385031215612d3f57600080fd5b6000612d4d85828601612b6a565b9250506020612d5e85828601612b7f565b9150509250929050565b60008060408385031215612d7b57600080fd5b6000612d8985828601612b6a565b9250506020612d9a85828601612be8565b9150509250929050565b600060208284031215612db657600080fd5b6000612dc484828501612b94565b91505092915050565b600060208284031215612ddf57600080fd5b6000612ded84828501612ba9565b91505092915050565b600060208284031215612e0857600080fd5b6000612e1684828501612be8565b91505092915050565b6000612e2b8383613386565b60208301905092915050565b612e4081613aca565b82525050565b6000612e5182613949565b612e5b8185613977565b9350612e6683613924565b8060005b83811015612e97578151612e7e8882612e1f565b9750612e898361396a565b925050600181019050612e6a565b5085935050505092915050565b612ead81613adc565b82525050565b6000612ebe82613954565b612ec88185613988565b9350612ed8818560208601613b4d565b612ee181613d19565b840191505092915050565b6000612ef78261395f565b612f018185613999565b9350612f11818560208601613b4d565b612f1a81613d19565b840191505092915050565b6000612f308261395f565b612f3a81856139aa565b9350612f4a818560208601613b4d565b80840191505092915050565b60008154612f6381613b80565b612f6d81866139aa565b94506001821660008114612f885760018114612f9957612fcc565b60ff19831686528186019350612fcc565b612fa285613934565b60005b83811015612fc457815481890152600182019150602081019050612fa5565b838801955050505b50505092915050565b6000612fe2603083613999565b9150612fed82613d2a565b604082019050919050565b6000613005602b83613999565b915061301082613d79565b604082019050919050565b6000613028603283613999565b915061303382613dc8565b604082019050919050565b600061304b602583613999565b915061305682613e17565b604082019050919050565b600061306e601c83613999565b915061307982613e66565b602082019050919050565b6000613091600a836139aa565b915061309c82613e8f565b600a82019050919050565b60006130b4602483613999565b91506130bf82613eb8565b604082019050919050565b60006130d7601983613999565b91506130e282613f07565b602082019050919050565b60006130fa6063836139aa565b915061310582613f30565b606382019050919050565b600061311d600b836139aa565b915061312882613fcb565b600b82019050919050565b6000613140602c83613999565b915061314b82613ff4565b604082019050919050565b6000613163600d836139aa565b915061316e82614043565b600d82019050919050565b6000613186603883613999565b91506131918261406c565b604082019050919050565b60006131a9602a83613999565b91506131b4826140bb565b604082019050919050565b60006131cc602983613999565b91506131d78261410a565b604082019050919050565b60006131ef602e83613999565b91506131fa82614159565b604082019050919050565b60006132126002836139aa565b915061321d826141a8565b600282019050919050565b6000613235602083613999565b9150613240826141d1565b602082019050919050565b6000613258603183613999565b9150613263826141fa565b604082019050919050565b600061327b602c83613999565b915061328682614249565b604082019050919050565b600061329e602f83613999565b91506132a982614298565b604082019050919050565b60006132c1600a836139aa565b91506132cc826142e7565b600a82019050919050565b60006132e4602183613999565b91506132ef82614310565b604082019050919050565b6000613307600a836139aa565b91506133128261435f565b600a82019050919050565b600061332a601d836139aa565b915061333582614388565b601d82019050919050565b600061334d603183613999565b9150613358826143b1565b604082019050919050565b6000613370602c83613999565b915061337b82614400565b604082019050919050565b61338f81613b34565b82525050565b61339e81613b34565b82525050565b60006133b08284612f25565b915081905092915050565b60006133c78285612f25565b91506133d38284612f25565b91508190509392505050565b60006133eb8286612f25565b91506133f78285612f25565b91506134038284612f25565b9150819050949350505050565b600061341c8287612f56565b91506134288286612f25565b91506134348285612f25565b91506134408284612f25565b915061344b82613156565b915081905095945050505050565b600061346482613084565b91506134708284612f25565b915081905092915050565b600061348682613110565b91506134928284612f25565b915081905092915050565b60006134a8826132b4565b91506134b48285612f25565b91506134bf826130ed565b91506134cb8284612f25565b91506134d682613205565b91508190509392505050565b60006134ed826132fa565b91506134f98284612f25565b915081905092915050565b600061350f8261331d565b915061351b8284612f25565b915081905092915050565b600060208201905061353b6000830184612e37565b92915050565b60006080820190506135566000830187612e37565b6135636020830186612e37565b6135706040830185613395565b81810360608301526135828184612eb3565b905095945050505050565b60006040820190506135a26000830185612e37565b6135af6020830184613395565b9392505050565b600060208201905081810360008301526135d08184612e46565b905092915050565b60006020820190506135ed6000830184612ea4565b92915050565b6000602082019050818103600083015261360d8184612eec565b905092915050565b6000606082019050818103600083015261362f8186612eec565b905061363e6020830185613395565b61364b6040830184612e37565b949350505050565b6000602082019050818103600083015261366c81612fd5565b9050919050565b6000602082019050818103600083015261368c81612ff8565b9050919050565b600060208201905081810360008301526136ac8161301b565b9050919050565b600060208201905081810360008301526136cc8161303e565b9050919050565b600060208201905081810360008301526136ec81613061565b9050919050565b6000602082019050818103600083015261370c816130a7565b9050919050565b6000602082019050818103600083015261372c816130ca565b9050919050565b6000602082019050818103600083015261374c81613133565b9050919050565b6000602082019050818103600083015261376c81613179565b9050919050565b6000602082019050818103600083015261378c8161319c565b9050919050565b600060208201905081810360008301526137ac816131bf565b9050919050565b600060208201905081810360008301526137cc816131e2565b9050919050565b600060208201905081810360008301526137ec81613228565b9050919050565b6000602082019050818103600083015261380c8161324b565b9050919050565b6000602082019050818103600083015261382c8161326e565b9050919050565b6000602082019050818103600083015261384c81613291565b9050919050565b6000602082019050818103600083015261386c816132d7565b9050919050565b6000602082019050818103600083015261388c81613340565b9050919050565b600060208201905081810360008301526138ac81613363565b9050919050565b60006020820190506138c86000830184613395565b92915050565b60006138d86138e9565b90506138e48282613bb2565b919050565b6000604051905090565b600067ffffffffffffffff82111561390e5761390d613cea565b5b61391782613d19565b9050602081019050919050565b6000819050602082019050919050565b60008190508160005260206000209050919050565b600081519050919050565b600081519050919050565b600081519050919050565b6000602082019050919050565b600082825260208201905092915050565b600082825260208201905092915050565b600082825260208201905092915050565b600081905092915050565b60006139c082613b34565b91506139cb83613b34565b9250827fffffffffffffffffffffffffffffffffffffffffffffffffffffffffffffffff03821115613a00576139ff613c5d565b5b828201905092915050565b6000613a1682613b34565b9150613a2183613b34565b925082613a3157613a30613c8c565b5b828204905092915050565b6000613a4782613b34565b9150613a5283613b34565b9250817fffffffffffffffffffffffffffffffffffffffffffffffffffffffffffffffff0483118215151615613a8b57613a8a613c5d565b5b828202905092915050565b6000613aa182613b34565b9150613aac83613b34565b925082821015613abf57613abe613c5d565b5b828203905092915050565b6000613ad582613b14565b9050919050565b60008115159050919050565b60007fffffffff0000000000000000000000000000000000000000000000000000000082169050919050565b600073ffffffffffffffffffffffffffffffffffffffff82169050919050565b6000819050919050565b82818337600083830152505050565b60005b83811015613b6b578082015181840152602081019050613b50565b83811115613b7a576000848401525b50505050565b60006002820490506001821680613b9857607f821691505b60208210811415613bac57613bab613cbb565b5b50919050565b613bbb82613d19565b810181811067ffffffffffffffff82111715613bda57613bd9613cea565b5b80604052505050565b6000613bee82613b34565b91507fffffffffffffffffffffffffffffffffffffffffffffffffffffffffffffffff821415613c2157613c20613c5d565b5b600182019050919050565b6000613c3782613b34565b9150613c4283613b34565b925082613c5257613c51613c8c565b5b828206905092915050565b7f4e487b7100000000000000000000000000000000000000000000000000000000600052601160045260246000fd5b7f4e487b7100000000000000000000000000000000000000000000000000000000600052601260045260246000fd5b7f4e487b7100000000000000000000000000000000000000000000000000000000600052602260045260246000fd5b7f4e487b7100000000000000000000000000000000000000000000000000000000600052604160045260246000fd5b6000601f19601f8301169050919050565b7f4e6f206d6f7265204e4654732066726f6d207468697320636f6c6c656374696f60008201527f6e2063616e206265206d696e7465642e00000000000000000000000000000000602082015250565b7f455243373231456e756d657261626c653a206f776e657220696e646578206f7560008201527f74206f6620626f756e6473000000000000000000000000000000000000000000602082015250565b7f4552433732313a207472616e7366657220746f206e6f6e20455243373231526560008201527f63656976657220696d706c656d656e7465720000000000000000000000000000602082015250565b7f4552433732313a207472616e736665722066726f6d20696e636f72726563742060008201527f6f776e6572000000000000000000000000000000000000000000000000000000602082015250565b7f4552433732313a20746f6b656e20616c7265616479206d696e74656400000000600082015250565b7f54484952445f574f524400000000000000000000000000000000000000000000600082015250565b7f4552433732313a207472616e7366657220746f20746865207a65726f2061646460008201527f7265737300000000000000000000000000000000000000000000000000000000602082015250565b7f4552433732313a20617070726f766520746f2063616c6c657200000000000000600082015250565b7f222c20226465736372697074696f6e223a20224120686967686c79206163636c60008201527f61696d656420636f6c6c656374696f6e206f6620737175617265732e222c202260208201527f696d616765223a2022646174613a696d6167652f7376672b786d6c3b6261736560408201527f36342c0000000000000000000000000000000000000000000000000000000000606082015250565b7f5345434f4e445f574f5244000000000000000000000000000000000000000000600082015250565b7f4552433732313a206f70657261746f7220717565727920666f72206e6f6e657860008201527f697374656e7420746f6b656e0000000000000000000000000000000000000000602082015250565b7f3c2f746578743e3c2f7376673e00000000000000000000000000000000000000600082015250565b7f4552433732313a20617070726f76652063616c6c6572206973206e6f74206f7760008201527f6e6572206e6f7220617070726f76656420666f7220616c6c0000000000000000602082015250565b7f4552433732313a2062616c616e636520717565727920666f7220746865207a6560008201527f726f206164647265737300000000000000000000000000000000000000000000602082015250565b7f4552433732313a206f776e657220717565727920666f72206e6f6e657869737460008201527f656e7420746f6b656e0000000000000000000000000000000000000000000000602082015250565b7f45524337323155524953746f726167653a2055524920736574206f66206e6f6e60008201527f6578697374656e7420746f6b656e000000000000000000000000000000000000602082015250565b7f227d000000000000000000000000000000000000000000000000000000000000600082015250565b7f4552433732313a206d696e7420746f20746865207a65726f2061646472657373600082015250565b7f45524337323155524953746f726167653a2055524920717565727920666f722060008201527f6e6f6e6578697374656e7420746f6b656e000000000000000000000000000000602082015250565b7f4552433732313a20617070726f76656420717565727920666f72206e6f6e657860008201527f697374656e7420746f6b656e0000000000000000000000000000000000000000602082015250565b7f4552433732314d657461646174613a2055524920717565727920666f72206e6f60008201527f6e6578697374656e7420746f6b656e0000000000000000000000000000000000602082015250565b7f7b226e616d65223a202200000000000000000000000000000000000000000000600082015250565b7f4552433732313a20617070726f76616c20746f2063757272656e74206f776e6560008201527f7200000000000000000000000000000000000000000000000000000000000000602082015250565b7f46495253545f574f524400000000000000000000000000000000000000000000600082015250565b7f646174613a6170706c69636174696f6e2f6a736f6e3b6261736536342c000000600082015250565b7f4552433732313a207472616e736665722063616c6c6572206973206e6f74206f60008201527f776e6572206e6f7220617070726f766564000000000000000000000000000000602082015250565b7f455243373231456e756d657261626c653a20676c6f62616c20696e646578206f60008201527f7574206f6620626f756e64730000000000000000000000000000000000000000602082015250565b61445881613aca565b811461446357600080fd5b50565b61446f81613adc565b811461447a57600080fd5b50565b61448681613ae8565b811461449157600080fd5b50565b61449d81613b34565b81146144a857600080fd5b5056fe416e204e465420772f20494420257320686173206265656e206d696e74656420746f2025734142434445464748494a4b4c4d4e4f505152535455565758595a6162636465666768696a6b6c6d6e6f707172737475767778797a303132333435363738392b2fa26469706673582212201933bbf9dd9dc7436494690bb41c770f73735f1d314e134a90926f09b01670b264736f6c634300080100333c73766720786d6c6e733d27687474703a2f2f7777772e77332e6f72672f323030302f73766727207072657365727665417370656374526174696f3d27784d696e594d696e206d656574272076696577426f783d273020302033353020333530273e3c7374796c653e2e62617365207b2066696c6c3a2077686974653b20666f6e742d66616d696c793a2073657269663b20666f6e742d73697a653a20323470783b207d3c2f7374796c653e3c726563742077696474683d273130302527206865696768743d2731303025272066696c6c3d27626c61636b27202f3e3c7465787420783d273530252720793d273530252720636c6173733d27626173652720646f6d696e616e742d626173656c696e653d276d6964646c652720746578742d616e63686f723d276d6964646c65273e",
  "linkReferences": {},
  "deployedLinkReferences": {}
}